{
  "address": "0x5FbDB2315678afecb367f032d93F642f64180aa3",
  "abi": [
    {
      "inputs": [
        {
          "internalType": "string",
          "name": "_name",
          "type": "string"
        },
        {
          "internalType": "string",
          "name": "_symbol",
          "type": "string"
        },
        {
          "internalType": "string",
          "name": "_baseURI",
          "type": "string"
        }
      ],
      "stateMutability": "nonpayable",
      "type": "constructor"
    },
    {
      "anonymous": false,
      "inputs": [
        {
          "indexed": true,
          "internalType": "address",
          "name": "owner",
          "type": "address"
        },
        {
          "indexed": true,
          "internalType": "address",
          "name": "spender",
          "type": "address"
        },
        {
          "indexed": true,
          "internalType": "uint256",
          "name": "id",
          "type": "uint256"
        }
      ],
      "name": "Approval",
      "type": "event"
    },
    {
      "anonymous": false,
      "inputs": [
        {
          "indexed": true,
          "internalType": "address",
          "name": "owner",
          "type": "address"
        },
        {
          "indexed": true,
          "internalType": "address",
          "name": "operator",
          "type": "address"
        },
        {
          "indexed": false,
          "internalType": "bool",
          "name": "approved",
          "type": "bool"
        }
      ],
      "name": "ApprovalForAll",
      "type": "event"
    },
    {
      "anonymous": false,
      "inputs": [
        {
          "indexed": true,
          "internalType": "address",
          "name": "previousOwner",
          "type": "address"
        },
        {
          "indexed": true,
          "internalType": "address",
          "name": "newOwner",
          "type": "address"
        }
      ],
      "name": "OwnershipTransferred",
      "type": "event"
    },
    {
      "anonymous": false,
      "inputs": [
        {
          "indexed": true,
          "internalType": "address",
          "name": "from",
          "type": "address"
        },
        {
          "indexed": true,
          "internalType": "address",
          "name": "to",
          "type": "address"
        },
        {
          "indexed": true,
          "internalType": "uint256",
          "name": "id",
          "type": "uint256"
        }
      ],
      "name": "Transfer",
      "type": "event"
    },
    {
      "inputs": [],
      "name": "MINT_PRICE",
      "outputs": [
        {
          "internalType": "uint256",
          "name": "",
          "type": "uint256"
        }
      ],
      "stateMutability": "view",
      "type": "function"
    },
    {
      "inputs": [],
      "name": "TOTAL_SUPPLY",
      "outputs": [
        {
          "internalType": "uint256",
          "name": "",
          "type": "uint256"
        }
      ],
      "stateMutability": "view",
      "type": "function"
    },
    {
      "inputs": [
        {
          "internalType": "address",
          "name": "spender",
          "type": "address"
        },
        {
          "internalType": "uint256",
          "name": "id",
          "type": "uint256"
        }
      ],
      "name": "approve",
      "outputs": [],
      "stateMutability": "nonpayable",
      "type": "function"
    },
    {
      "inputs": [
        {
          "internalType": "address",
          "name": "owner",
          "type": "address"
        }
      ],
      "name": "balanceOf",
      "outputs": [
        {
          "internalType": "uint256",
          "name": "",
          "type": "uint256"
        }
      ],
      "stateMutability": "view",
      "type": "function"
    },
    {
      "inputs": [],
      "name": "baseURI",
      "outputs": [
        {
          "internalType": "string",
          "name": "",
          "type": "string"
        }
      ],
      "stateMutability": "view",
      "type": "function"
    },
    {
      "inputs": [],
      "name": "currentTokenId",
      "outputs": [
        {
          "internalType": "uint256",
          "name": "",
          "type": "uint256"
        }
      ],
      "stateMutability": "view",
      "type": "function"
    },
    {
      "inputs": [
        {
          "internalType": "uint256",
          "name": "",
          "type": "uint256"
        }
      ],
      "name": "getApproved",
      "outputs": [
        {
          "internalType": "address",
          "name": "",
          "type": "address"
        }
      ],
      "stateMutability": "view",
      "type": "function"
    },
    {
      "inputs": [
        {
          "internalType": "address",
          "name": "",
          "type": "address"
        },
        {
          "internalType": "address",
          "name": "",
          "type": "address"
        }
      ],
      "name": "isApprovedForAll",
      "outputs": [
        {
          "internalType": "bool",
          "name": "",
          "type": "bool"
        }
      ],
      "stateMutability": "view",
      "type": "function"
    },
    {
      "inputs": [
        {
          "internalType": "address",
          "name": "recipient",
          "type": "address"
        }
      ],
      "name": "mintTo",
      "outputs": [
        {
          "internalType": "uint256",
          "name": "",
          "type": "uint256"
        }
      ],
      "stateMutability": "payable",
      "type": "function"
    },
    {
      "inputs": [],
      "name": "name",
      "outputs": [
        {
          "internalType": "string",
          "name": "",
          "type": "string"
        }
      ],
      "stateMutability": "view",
      "type": "function"
    },
    {
      "inputs": [],
      "name": "owner",
      "outputs": [
        {
          "internalType": "address",
          "name": "",
          "type": "address"
        }
      ],
      "stateMutability": "view",
      "type": "function"
    },
    {
      "inputs": [
        {
          "internalType": "uint256",
          "name": "id",
          "type": "uint256"
        }
      ],
      "name": "ownerOf",
      "outputs": [
        {
          "internalType": "address",
          "name": "owner",
          "type": "address"
        }
      ],
      "stateMutability": "view",
      "type": "function"
    },
    {
      "inputs": [
        {
          "internalType": "address",
          "name": "dest",
          "type": "address"
        }
      ],
      "name": "payments",
      "outputs": [
        {
          "internalType": "uint256",
          "name": "",
          "type": "uint256"
        }
      ],
      "stateMutability": "view",
      "type": "function"
    },
    {
      "inputs": [],
      "name": "renounceOwnership",
      "outputs": [],
      "stateMutability": "nonpayable",
      "type": "function"
    },
    {
      "inputs": [
        {
          "internalType": "address",
          "name": "from",
          "type": "address"
        },
        {
          "internalType": "address",
          "name": "to",
          "type": "address"
        },
        {
          "internalType": "uint256",
          "name": "id",
          "type": "uint256"
        }
      ],
      "name": "safeTransferFrom",
      "outputs": [],
      "stateMutability": "nonpayable",
      "type": "function"
    },
    {
      "inputs": [
        {
          "internalType": "address",
          "name": "from",
          "type": "address"
        },
        {
          "internalType": "address",
          "name": "to",
          "type": "address"
        },
        {
          "internalType": "uint256",
          "name": "id",
          "type": "uint256"
        },
        {
          "internalType": "bytes",
          "name": "data",
          "type": "bytes"
        }
      ],
      "name": "safeTransferFrom",
      "outputs": [],
      "stateMutability": "nonpayable",
      "type": "function"
    },
    {
      "inputs": [
        {
          "internalType": "address",
          "name": "operator",
          "type": "address"
        },
        {
          "internalType": "bool",
          "name": "approved",
          "type": "bool"
        }
      ],
      "name": "setApprovalForAll",
      "outputs": [],
      "stateMutability": "nonpayable",
      "type": "function"
    },
    {
      "inputs": [
        {
          "internalType": "bytes4",
          "name": "interfaceId",
          "type": "bytes4"
        }
      ],
      "name": "supportsInterface",
      "outputs": [
        {
          "internalType": "bool",
          "name": "",
          "type": "bool"
        }
      ],
      "stateMutability": "view",
      "type": "function"
    },
    {
      "inputs": [],
      "name": "symbol",
      "outputs": [
        {
          "internalType": "string",
          "name": "",
          "type": "string"
        }
      ],
      "stateMutability": "view",
      "type": "function"
    },
    {
      "inputs": [
        {
          "internalType": "uint256",
          "name": "tokenId",
          "type": "uint256"
        }
      ],
      "name": "tokenURI",
      "outputs": [
        {
          "internalType": "string",
          "name": "",
          "type": "string"
        }
      ],
      "stateMutability": "view",
      "type": "function"
    },
    {
      "inputs": [
        {
          "internalType": "address",
          "name": "from",
          "type": "address"
        },
        {
          "internalType": "address",
          "name": "to",
          "type": "address"
        },
        {
          "internalType": "uint256",
          "name": "id",
          "type": "uint256"
        }
      ],
      "name": "transferFrom",
      "outputs": [],
      "stateMutability": "nonpayable",
      "type": "function"
    },
    {
      "inputs": [
        {
          "internalType": "address",
          "name": "newOwner",
          "type": "address"
        }
      ],
      "name": "transferOwnership",
      "outputs": [],
      "stateMutability": "nonpayable",
      "type": "function"
    },
    {
      "inputs": [
        {
          "internalType": "address payable",
          "name": "payee",
          "type": "address"
        }
      ],
      "name": "withdrawPayments",
      "outputs": [],
      "stateMutability": "nonpayable",
      "type": "function"
    }
  ],
  "transactionHash": "0x7d381a5dd6b58244b3e431c9d1db4a0ef69202c0e32778f0542f51ed6012cd00",
  "args": [
    "Test Contract",
    "TC",
    "https://www.google.com/"
  ],
  "numDeployments": 1,
  "solcInputHash": "025780f376cd5d680f3c713c188776c6",
  "bytecode": "0x60a06040523480156200001157600080fd5b5060405162003efd38038062003efd833981810160405281019062000037919062000437565b8282816000908051906020019062000051929190620001dc565b5080600190805190602001906200006a929190620001dc565b5050506040516200007b906200026d565b604051809103906000f08015801562000098573d6000803e3d6000fd5b5073ffffffffffffffffffffffffffffffffffffffff1660808173ffffffffffffffffffffffffffffffffffffffff1681525050620000ec620000e06200010e60201b60201c565b6200011660201b60201c565b806007908051906020019062000104929190620001dc565b5050505062000555565b600033905090565b6000600660009054906101000a900473ffffffffffffffffffffffffffffffffffffffff16905081600660006101000a81548173ffffffffffffffffffffffffffffffffffffffff021916908373ffffffffffffffffffffffffffffffffffffffff1602179055508173ffffffffffffffffffffffffffffffffffffffff168173ffffffffffffffffffffffffffffffffffffffff167f8be0079c531659141344cd1fd0a4f28419497f9722a3daafe3b4186f6b6457e060405160405180910390a35050565b828054620001ea906200051f565b90600052602060002090601f0160209004810192826200020e57600085556200025a565b82601f106200022957805160ff19168380011785556200025a565b828001600101855582156200025a579182015b82811115620002595782518255916020019190600101906200023c565b5b5090506200026991906200027b565b5090565b610d1680620031e783390190565b5b80821115620002965760008160009055506001016200027c565b5090565b6000604051905090565b600080fd5b600080fd5b600080fd5b600080fd5b6000601f19601f8301169050919050565b7f4e487b7100000000000000000000000000000000000000000000000000000000600052604160045260246000fd5b6200030382620002b8565b810181811067ffffffffffffffff82111715620003255762000324620002c9565b5b80604052505050565b60006200033a6200029a565b9050620003488282620002f8565b919050565b600067ffffffffffffffff8211156200036b576200036a620002c9565b5b6200037682620002b8565b9050602081019050919050565b60005b83811015620003a357808201518184015260208101905062000386565b83811115620003b3576000848401525b50505050565b6000620003d0620003ca846200034d565b6200032e565b905082815260208101848484011115620003ef57620003ee620002b3565b5b620003fc84828562000383565b509392505050565b600082601f8301126200041c576200041b620002ae565b5b81516200042e848260208601620003b9565b91505092915050565b600080600060608486031215620004535762000452620002a4565b5b600084015167ffffffffffffffff811115620004745762000473620002a9565b5b620004828682870162000404565b935050602084015167ffffffffffffffff811115620004a657620004a5620002a9565b5b620004b48682870162000404565b925050604084015167ffffffffffffffff811115620004d857620004d7620002a9565b5b620004e68682870162000404565b9150509250925092565b7f4e487b7100000000000000000000000000000000000000000000000000000000600052602260045260246000fd5b600060028204905060018216806200053857607f821691505b602082108114156200054f576200054e620004f0565b5b50919050565b608051612c6f620005786000396000818161152401526116f40152612c6f6000f3fe60806040526004361061013f5760003560e01c8063715018a6116100b6578063b88d4fde1161006f578063b88d4fde1461044e578063c002d23d14610477578063c87b56dd146104a2578063e2982c21146104df578063e985e9c51461051c578063f2fde38b146105595761013f565b8063715018a61461035d578063755edd17146103745780638da5cb5b146103a4578063902d55a5146103cf57806395d89b41146103fa578063a22cb465146104255761013f565b806323b872dd1161010857806323b872dd1461023d57806331b3eb941461026657806342842e0e1461028f5780636352211e146102b85780636c0360eb146102f557806370a08231146103205761013f565b80629a9b7b1461014457806301ffc9a71461016f57806306fdde03146101ac578063081812fc146101d7578063095ea7b314610214575b600080fd5b34801561015057600080fd5b50610159610582565b6040516101669190611d0a565b60405180910390f35b34801561017b57600080fd5b5061019660048036038101906101919190611d87565b610588565b6040516101a39190611dcf565b60405180910390f35b3480156101b857600080fd5b506101c161061a565b6040516101ce9190611e83565b60405180910390f35b3480156101e357600080fd5b506101fe60048036038101906101f99190611ed1565b6106a8565b60405161020b9190611f3f565b60405180910390f35b34801561022057600080fd5b5061023b60048036038101906102369190611f86565b6106db565b005b34801561024957600080fd5b50610264600480360381019061025f9190611fc6565b6108c4565b005b34801561027257600080fd5b5061028d60048036038101906102889190612057565b610cc4565b005b34801561029b57600080fd5b506102b660048036038101906102b19190611fc6565b610d4c565b005b3480156102c457600080fd5b506102df60048036038101906102da9190611ed1565b610e84565b6040516102ec9190611f3f565b60405180910390f35b34801561030157600080fd5b5061030a610f30565b6040516103179190611e83565b60405180910390f35b34801561032c57600080fd5b5061034760048036038101906103429190612084565b610fbe565b6040516103549190611d0a565b60405180910390f35b34801561036957600080fd5b50610372611076565b005b61038e60048036038101906103899190612084565b6110fe565b60405161039b9190611d0a565b60405180910390f35b3480156103b057600080fd5b506103b96111bb565b6040516103c69190611f3f565b60405180910390f35b3480156103db57600080fd5b506103e46111e5565b6040516103f19190611d0a565b60405180910390f35b34801561040657600080fd5b5061040f6111eb565b60405161041c9190611e83565b60405180910390f35b34801561043157600080fd5b5061044c600480360381019061044791906120dd565b611279565b005b34801561045a57600080fd5b5061047560048036038101906104709190612182565b611376565b005b34801561048357600080fd5b5061048c6114b4565b6040516104999190611d0a565b60405180910390f35b3480156104ae57600080fd5b506104c960048036038101906104c49190611ed1565b6114c0565b6040516104d69190611e83565b60405180910390f35b3480156104eb57600080fd5b5061050660048036038101906105019190612084565b611520565b6040516105139190611d0a565b60405180910390f35b34801561052857600080fd5b50610543600480360381019061053e919061220a565b6115c3565b6040516105509190611dcf565b60405180910390f35b34801561056557600080fd5b50610580600480360381019061057b9190612084565b6115f2565b005b60085481565b60006301ffc9a760e01b827bffffffffffffffffffffffffffffffffffffffffffffffffffffffff191614806105e357506380ac58cd60e01b827bffffffffffffffffffffffffffffffffffffffffffffffffffffffff1916145b806106135750635b5e139f60e01b827bffffffffffffffffffffffffffffffffffffffffffffffffffffffff1916145b9050919050565b6000805461062790612279565b80601f016020809104026020016040519081016040528092919081815260200182805461065390612279565b80156106a05780601f10610675576101008083540402835291602001916106a0565b820191906000526020600020905b81548152906001019060200180831161068357829003601f168201915b505050505081565b60046020528060005260406000206000915054906101000a900473ffffffffffffffffffffffffffffffffffffffff1681565b60006002600083815260200190815260200160002060009054906101000a900473ffffffffffffffffffffffffffffffffffffffff1690508073ffffffffffffffffffffffffffffffffffffffff163373ffffffffffffffffffffffffffffffffffffffff1614806107d35750600560008273ffffffffffffffffffffffffffffffffffffffff1673ffffffffffffffffffffffffffffffffffffffff16815260200190815260200160002060003373ffffffffffffffffffffffffffffffffffffffff1673ffffffffffffffffffffffffffffffffffffffff16815260200190815260200160002060009054906101000a900460ff165b610812576040517f08c379a0000000000000000000000000000000000000000000000000000000008152600401610809906122f7565b60405180910390fd5b826004600084815260200190815260200160002060006101000a81548173ffffffffffffffffffffffffffffffffffffffff021916908373ffffffffffffffffffffffffffffffffffffffff160217905550818373ffffffffffffffffffffffffffffffffffffffff168273ffffffffffffffffffffffffffffffffffffffff167f8c5be1e5ebec7d5bd14f71427d1e84f3dd0314c0f7b2291e5b200ac8c7c3b92560405160405180910390a4505050565b6002600082815260200190815260200160002060009054906101000a900473ffffffffffffffffffffffffffffffffffffffff1673ffffffffffffffffffffffffffffffffffffffff168373ffffffffffffffffffffffffffffffffffffffff1614610965576040517f08c379a000000000000000000000000000000000000000000000000000000000815260040161095c90612363565b60405180910390fd5b600073ffffffffffffffffffffffffffffffffffffffff168273ffffffffffffffffffffffffffffffffffffffff1614156109d5576040517f08c379a00000000000000000000000000000000000000000000000000000000081526004016109cc906123cf565b60405180910390fd5b8273ffffffffffffffffffffffffffffffffffffffff163373ffffffffffffffffffffffffffffffffffffffff161480610a955750600560008473ffffffffffffffffffffffffffffffffffffffff1673ffffffffffffffffffffffffffffffffffffffff16815260200190815260200160002060003373ffffffffffffffffffffffffffffffffffffffff1673ffffffffffffffffffffffffffffffffffffffff16815260200190815260200160002060009054906101000a900460ff165b80610afe57506004600082815260200190815260200160002060009054906101000a900473ffffffffffffffffffffffffffffffffffffffff1673ffffffffffffffffffffffffffffffffffffffff163373ffffffffffffffffffffffffffffffffffffffff16145b610b3d576040517f08c379a0000000000000000000000000000000000000000000000000000000008152600401610b34906122f7565b60405180910390fd5b600360008473ffffffffffffffffffffffffffffffffffffffff1673ffffffffffffffffffffffffffffffffffffffff1681526020019081526020016000206000815480929190600190039190505550600360008373ffffffffffffffffffffffffffffffffffffffff1673ffffffffffffffffffffffffffffffffffffffff16815260200190815260200160002060008154809291906001019190505550816002600083815260200190815260200160002060006101000a81548173ffffffffffffffffffffffffffffffffffffffff021916908373ffffffffffffffffffffffffffffffffffffffff1602179055506004600082815260200190815260200160002060006101000a81549073ffffffffffffffffffffffffffffffffffffffff0219169055808273ffffffffffffffffffffffffffffffffffffffff168473ffffffffffffffffffffffffffffffffffffffff167fddf252ad1be2c89b69c2b068fc378daa952ba7f163c4a11628f55a4df523b3ef60405160405180910390a4505050565b610ccc6116ea565b73ffffffffffffffffffffffffffffffffffffffff16610cea6111bb565b73ffffffffffffffffffffffffffffffffffffffff1614610d40576040517f08c379a0000000000000000000000000000000000000000000000000000000008152600401610d379061243b565b60405180910390fd5b610d49816116f2565b50565b610d578383836108c4565b60008273ffffffffffffffffffffffffffffffffffffffff163b1480610e40575063150b7a0260e01b7bffffffffffffffffffffffffffffffffffffffffffffffffffffffff19168273ffffffffffffffffffffffffffffffffffffffff1663150b7a023386856040518463ffffffff1660e01b8152600401610ddc93929190612492565b6020604051808303816000875af1158015610dfb573d6000803e3d6000fd5b505050506040513d601f19601f82011682018060405250810190610e1f91906124f1565b7bffffffffffffffffffffffffffffffffffffffffffffffffffffffff1916145b610e7f576040517f08c379a0000000000000000000000000000000000000000000000000000000008152600401610e769061256a565b60405180910390fd5b505050565b60008073ffffffffffffffffffffffffffffffffffffffff166002600084815260200190815260200160002060009054906101000a900473ffffffffffffffffffffffffffffffffffffffff1691508173ffffffffffffffffffffffffffffffffffffffff161415610f2b576040517f08c379a0000000000000000000000000000000000000000000000000000000008152600401610f22906125d6565b60405180910390fd5b919050565b60078054610f3d90612279565b80601f0160208091040260200160405190810160405280929190818152602001828054610f6990612279565b8015610fb65780601f10610f8b57610100808354040283529160200191610fb6565b820191906000526020600020905b815481529060010190602001808311610f9957829003601f168201915b505050505081565b60008073ffffffffffffffffffffffffffffffffffffffff168273ffffffffffffffffffffffffffffffffffffffff16141561102f576040517f08c379a000000000000000000000000000000000000000000000000000000000815260040161102690612642565b60405180910390fd5b600360008373ffffffffffffffffffffffffffffffffffffffff1673ffffffffffffffffffffffffffffffffffffffff168152602001908152602001600020549050919050565b61107e6116ea565b73ffffffffffffffffffffffffffffffffffffffff1661109c6111bb565b73ffffffffffffffffffffffffffffffffffffffff16146110f2576040517f08c379a00000000000000000000000000000000000000000000000000000000081526004016110e99061243b565b60405180910390fd5b6110fc6000611780565b565b600067011c37937e080000341461114a576040517f08c379a0000000000000000000000000000000000000000000000000000000008152600401611141906126d4565b60405180910390fd5b600060086000815461115b90612723565b91905081905590506127108111156111a8576040517f08c379a000000000000000000000000000000000000000000000000000000000815260040161119f906127b8565b60405180910390fd5b6111b28382611846565b80915050919050565b6000600660009054906101000a900473ffffffffffffffffffffffffffffffffffffffff16905090565b61271081565b600180546111f890612279565b80601f016020809104026020016040519081016040528092919081815260200182805461122490612279565b80156112715780601f1061124657610100808354040283529160200191611271565b820191906000526020600020905b81548152906001019060200180831161125457829003601f168201915b505050505081565b80600560003373ffffffffffffffffffffffffffffffffffffffff1673ffffffffffffffffffffffffffffffffffffffff16815260200190815260200160002060008473ffffffffffffffffffffffffffffffffffffffff1673ffffffffffffffffffffffffffffffffffffffff16815260200190815260200160002060006101000a81548160ff0219169083151502179055508173ffffffffffffffffffffffffffffffffffffffff163373ffffffffffffffffffffffffffffffffffffffff167f17307eab39ab6107e8899845ad3d59bd9653f200f220920489ca2b5937696c318360405161136a9190611dcf565b60405180910390a35050565b6113818585856108c4565b60008473ffffffffffffffffffffffffffffffffffffffff163b148061146e575063150b7a0260e01b7bffffffffffffffffffffffffffffffffffffffffffffffffffffffff19168473ffffffffffffffffffffffffffffffffffffffff1663150b7a0233888787876040518663ffffffff1660e01b815260040161140a959493929190612814565b6020604051808303816000875af1158015611429573d6000803e3d6000fd5b505050506040513d601f19601f8201168201806040525081019061144d91906124f1565b7bffffffffffffffffffffffffffffffffffffffffffffffffffffffff1916145b6114ad576040517f08c379a00000000000000000000000000000000000000000000000000000000081526004016114a49061256a565b60405180910390fd5b5050505050565b67011c37937e08000081565b60606000600780546114d190612279565b9050116114ed5760405180602001604052806000815250611519565b60076114f88361197d565b604051602001611509929190612932565b6040516020818303038152906040525b9050919050565b60007f000000000000000000000000000000000000000000000000000000000000000073ffffffffffffffffffffffffffffffffffffffff1663e3a9db1a836040518263ffffffff1660e01b815260040161157b9190611f3f565b602060405180830381865afa158015611598573d6000803e3d6000fd5b505050506040513d601f19601f820116820180604052508101906115bc919061296b565b9050919050565b60056020528160005260406000206020528060005260406000206000915091509054906101000a900460ff1681565b6115fa6116ea565b73ffffffffffffffffffffffffffffffffffffffff166116186111bb565b73ffffffffffffffffffffffffffffffffffffffff161461166e576040517f08c379a00000000000000000000000000000000000000000000000000000000081526004016116659061243b565b60405180910390fd5b600073ffffffffffffffffffffffffffffffffffffffff168173ffffffffffffffffffffffffffffffffffffffff1614156116de576040517f08c379a00000000000000000000000000000000000000000000000000000000081526004016116d590612a0a565b60405180910390fd5b6116e781611780565b50565b600033905090565b7f000000000000000000000000000000000000000000000000000000000000000073ffffffffffffffffffffffffffffffffffffffff166351cff8d9826040518263ffffffff1660e01b815260040161174b9190612a39565b600060405180830381600087803b15801561176557600080fd5b505af1158015611779573d6000803e3d6000fd5b5050505050565b6000600660009054906101000a900473ffffffffffffffffffffffffffffffffffffffff16905081600660006101000a81548173ffffffffffffffffffffffffffffffffffffffff021916908373ffffffffffffffffffffffffffffffffffffffff1602179055508173ffffffffffffffffffffffffffffffffffffffff168173ffffffffffffffffffffffffffffffffffffffff167f8be0079c531659141344cd1fd0a4f28419497f9722a3daafe3b4186f6b6457e060405160405180910390a35050565b6118508282611ade565b60008273ffffffffffffffffffffffffffffffffffffffff163b148061193a575063150b7a0260e01b7bffffffffffffffffffffffffffffffffffffffffffffffffffffffff19168273ffffffffffffffffffffffffffffffffffffffff1663150b7a02336000856040518463ffffffff1660e01b81526004016118d693929190612492565b6020604051808303816000875af11580156118f5573d6000803e3d6000fd5b505050506040513d601f19601f8201168201806040525081019061191991906124f1565b7bffffffffffffffffffffffffffffffffffffffffffffffffffffffff1916145b611979576040517f08c379a00000000000000000000000000000000000000000000000000000000081526004016119709061256a565b60405180910390fd5b5050565b606060008214156119c5576040518060400160405280600181526020017f30000000000000000000000000000000000000000000000000000000000000008152509050611ad9565b600082905060005b600082146119f75780806119e090612723565b915050600a826119f09190612a83565b91506119cd565b60008167ffffffffffffffff811115611a1357611a12612ab4565b5b6040519080825280601f01601f191660200182016040528015611a455781602001600182028036833780820191505090505b5090505b60008514611ad257600182611a5e9190612ae3565b9150600a85611a6d9190612b17565b6030611a799190612b48565b60f81b818381518110611a8f57611a8e612b9e565b5b60200101907effffffffffffffffffffffffffffffffffffffffffffffffffffffffffffff1916908160001a905350600a85611acb9190612a83565b9450611a49565b8093505050505b919050565b600073ffffffffffffffffffffffffffffffffffffffff168273ffffffffffffffffffffffffffffffffffffffff161415611b4e576040517f08c379a0000000000000000000000000000000000000000000000000000000008152600401611b45906123cf565b60405180910390fd5b600073ffffffffffffffffffffffffffffffffffffffff166002600083815260200190815260200160002060009054906101000a900473ffffffffffffffffffffffffffffffffffffffff1673ffffffffffffffffffffffffffffffffffffffff1614611bf0576040517f08c379a0000000000000000000000000000000000000000000000000000000008152600401611be790612c19565b60405180910390fd5b600360008373ffffffffffffffffffffffffffffffffffffffff1673ffffffffffffffffffffffffffffffffffffffff16815260200190815260200160002060008154809291906001019190505550816002600083815260200190815260200160002060006101000a81548173ffffffffffffffffffffffffffffffffffffffff021916908373ffffffffffffffffffffffffffffffffffffffff160217905550808273ffffffffffffffffffffffffffffffffffffffff16600073ffffffffffffffffffffffffffffffffffffffff167fddf252ad1be2c89b69c2b068fc378daa952ba7f163c4a11628f55a4df523b3ef60405160405180910390a45050565b6000819050919050565b611d0481611cf1565b82525050565b6000602082019050611d1f6000830184611cfb565b92915050565b600080fd5b600080fd5b60007fffffffff0000000000000000000000000000000000000000000000000000000082169050919050565b611d6481611d2f565b8114611d6f57600080fd5b50565b600081359050611d8181611d5b565b92915050565b600060208284031215611d9d57611d9c611d25565b5b6000611dab84828501611d72565b91505092915050565b60008115159050919050565b611dc981611db4565b82525050565b6000602082019050611de46000830184611dc0565b92915050565b600081519050919050565b600082825260208201905092915050565b60005b83811015611e24578082015181840152602081019050611e09565b83811115611e33576000848401525b50505050565b6000601f19601f8301169050919050565b6000611e5582611dea565b611e5f8185611df5565b9350611e6f818560208601611e06565b611e7881611e39565b840191505092915050565b60006020820190508181036000830152611e9d8184611e4a565b905092915050565b611eae81611cf1565b8114611eb957600080fd5b50565b600081359050611ecb81611ea5565b92915050565b600060208284031215611ee757611ee6611d25565b5b6000611ef584828501611ebc565b91505092915050565b600073ffffffffffffffffffffffffffffffffffffffff82169050919050565b6000611f2982611efe565b9050919050565b611f3981611f1e565b82525050565b6000602082019050611f546000830184611f30565b92915050565b611f6381611f1e565b8114611f6e57600080fd5b50565b600081359050611f8081611f5a565b92915050565b60008060408385031215611f9d57611f9c611d25565b5b6000611fab85828601611f71565b9250506020611fbc85828601611ebc565b9150509250929050565b600080600060608486031215611fdf57611fde611d25565b5b6000611fed86828701611f71565b9350506020611ffe86828701611f71565b925050604061200f86828701611ebc565b9150509250925092565b600061202482611efe565b9050919050565b61203481612019565b811461203f57600080fd5b50565b6000813590506120518161202b565b92915050565b60006020828403121561206d5761206c611d25565b5b600061207b84828501612042565b91505092915050565b60006020828403121561209a57612099611d25565b5b60006120a884828501611f71565b91505092915050565b6120ba81611db4565b81146120c557600080fd5b50565b6000813590506120d7816120b1565b92915050565b600080604083850312156120f4576120f3611d25565b5b600061210285828601611f71565b9250506020612113858286016120c8565b9150509250929050565b600080fd5b600080fd5b600080fd5b60008083601f8401126121425761214161211d565b5b8235905067ffffffffffffffff81111561215f5761215e612122565b5b60208301915083600182028301111561217b5761217a612127565b5b9250929050565b60008060008060006080868803121561219e5761219d611d25565b5b60006121ac88828901611f71565b95505060206121bd88828901611f71565b94505060406121ce88828901611ebc565b935050606086013567ffffffffffffffff8111156121ef576121ee611d2a565b5b6121fb8882890161212c565b92509250509295509295909350565b6000806040838503121561222157612220611d25565b5b600061222f85828601611f71565b925050602061224085828601611f71565b9150509250929050565b7f4e487b7100000000000000000000000000000000000000000000000000000000600052602260045260246000fd5b6000600282049050600182168061229157607f821691505b602082108114156122a5576122a461224a565b5b50919050565b7f4e4f545f415554484f52495a4544000000000000000000000000000000000000600082015250565b60006122e1600e83611df5565b91506122ec826122ab565b602082019050919050565b60006020820190508181036000830152612310816122d4565b9050919050565b7f57524f4e475f46524f4d00000000000000000000000000000000000000000000600082015250565b600061234d600a83611df5565b915061235882612317565b602082019050919050565b6000602082019050818103600083015261237c81612340565b9050919050565b7f494e56414c49445f524543495049454e54000000000000000000000000000000600082015250565b60006123b9601183611df5565b91506123c482612383565b602082019050919050565b600060208201905081810360008301526123e8816123ac565b9050919050565b7f4f776e61626c653a2063616c6c6572206973206e6f7420746865206f776e6572600082015250565b6000612425602083611df5565b9150612430826123ef565b602082019050919050565b6000602082019050818103600083015261245481612418565b9050919050565b600082825260208201905092915050565b50565b600061247c60008361245b565b91506124878261246c565b600082019050919050565b60006080820190506124a76000830186611f30565b6124b46020830185611f30565b6124c16040830184611cfb565b81810360608301526124d28161246f565b9050949350505050565b6000815190506124eb81611d5b565b92915050565b60006020828403121561250757612506611d25565b5b6000612515848285016124dc565b91505092915050565b7f554e534146455f524543495049454e5400000000000000000000000000000000600082015250565b6000612554601083611df5565b915061255f8261251e565b602082019050919050565b6000602082019050818103600083015261258381612547565b9050919050565b7f4e4f545f4d494e54454400000000000000000000000000000000000000000000600082015250565b60006125c0600a83611df5565b91506125cb8261258a565b602082019050919050565b600060208201905081810360008301526125ef816125b3565b9050919050565b7f5a45524f5f414444524553530000000000000000000000000000000000000000600082015250565b600061262c600c83611df5565b9150612637826125f6565b602082019050919050565b6000602082019050818103600083015261265b8161261f565b9050919050565b7f5472616e73616374696f6e2076616c756520646964206e6f7420657175616c2060008201527f746865206d696e74207072696365000000000000000000000000000000000000602082015250565b60006126be602e83611df5565b91506126c982612662565b604082019050919050565b600060208201905081810360008301526126ed816126b1565b9050919050565b7f4e487b7100000000000000000000000000000000000000000000000000000000600052601160045260246000fd5b600061272e82611cf1565b91507fffffffffffffffffffffffffffffffffffffffffffffffffffffffffffffffff821415612761576127606126f4565b5b600182019050919050565b7f4d617820737570706c7920726561636865640000000000000000000000000000600082015250565b60006127a2601283611df5565b91506127ad8261276c565b602082019050919050565b600060208201905081810360008301526127d181612795565b9050919050565b82818337600083830152505050565b60006127f3838561245b565b93506128008385846127d8565b61280983611e39565b840190509392505050565b60006080820190506128296000830188611f30565b6128366020830187611f30565b6128436040830186611cfb565b81810360608301526128568184866127e7565b90509695505050505050565b600081905092915050565b60008190508160005260206000209050919050565b6000815461288f81612279565b6128998186612862565b945060018216600081146128b457600181146128c5576128f8565b60ff198316865281860193506128f8565b6128ce8561286d565b60005b838110156128f0578154818901526001820191506020810190506128d1565b838801955050505b50505092915050565b600061290c82611dea565b6129168185612862565b9350612926818560208601611e06565b80840191505092915050565b600061293e8285612882565b915061294a8284612901565b91508190509392505050565b60008151905061296581611ea5565b92915050565b60006020828403121561298157612980611d25565b5b600061298f84828501612956565b91505092915050565b7f4f776e61626c653a206e6577206f776e657220697320746865207a65726f206160008201527f6464726573730000000000000000000000000000000000000000000000000000602082015250565b60006129f4602683611df5565b91506129ff82612998565b604082019050919050565b60006020820190508181036000830152612a23816129e7565b9050919050565b612a3381612019565b82525050565b6000602082019050612a4e6000830184612a2a565b92915050565b7f4e487b7100000000000000000000000000000000000000000000000000000000600052601260045260246000fd5b6000612a8e82611cf1565b9150612a9983611cf1565b925082612aa957612aa8612a54565b5b828204905092915050565b7f4e487b7100000000000000000000000000000000000000000000000000000000600052604160045260246000fd5b6000612aee82611cf1565b9150612af983611cf1565b925082821015612b0c57612b0b6126f4565b5b828203905092915050565b6000612b2282611cf1565b9150612b2d83611cf1565b925082612b3d57612b3c612a54565b5b828206905092915050565b6000612b5382611cf1565b9150612b5e83611cf1565b9250827fffffffffffffffffffffffffffffffffffffffffffffffffffffffffffffffff03821115612b9357612b926126f4565b5b828201905092915050565b7f4e487b7100000000000000000000000000000000000000000000000000000000600052603260045260246000fd5b7f414c52454144595f4d494e544544000000000000000000000000000000000000600082015250565b6000612c03600e83611df5565b9150612c0e82612bcd565b602082019050919050565b60006020820190508181036000830152612c3281612bf6565b905091905056fea26469706673582212202ffbf57b9ad92396bc60b043b22fec19d9437ffe947d099213722dff0a70e88864736f6c634300080a0033608060405234801561001057600080fd5b5061002d61002261003260201b60201c565b61003a60201b60201c565b6100fe565b600033905090565b60008060009054906101000a900473ffffffffffffffffffffffffffffffffffffffff169050816000806101000a81548173ffffffffffffffffffffffffffffffffffffffff021916908373ffffffffffffffffffffffffffffffffffffffff1602179055508173ffffffffffffffffffffffffffffffffffffffff168173ffffffffffffffffffffffffffffffffffffffff167f8be0079c531659141344cd1fd0a4f28419497f9722a3daafe3b4186f6b6457e060405160405180910390a35050565b610c098061010d6000396000f3fe6080604052600436106100555760003560e01c806351cff8d91461005a578063715018a6146100835780638da5cb5b1461009a578063e3a9db1a146100c5578063f2fde38b14610102578063f340fa011461012b575b600080fd5b34801561006657600080fd5b50610081600480360381019061007c9190610805565b610147565b005b34801561008f57600080fd5b506100986102c7565b005b3480156100a657600080fd5b506100af61034f565b6040516100bc9190610853565b60405180910390f35b3480156100d157600080fd5b506100ec60048036038101906100e7919061089a565b610378565b6040516100f991906108e0565b60405180910390f35b34801561010e57600080fd5b506101296004803603810190610124919061089a565b6103c1565b005b6101456004803603810190610140919061089a565b6104b9565b005b61014f6105e2565b73ffffffffffffffffffffffffffffffffffffffff1661016d61034f565b73ffffffffffffffffffffffffffffffffffffffff16146101c3576040517f08c379a00000000000000000000000000000000000000000000000000000000081526004016101ba90610958565b60405180910390fd5b6000600160008373ffffffffffffffffffffffffffffffffffffffff1673ffffffffffffffffffffffffffffffffffffffff1681526020019081526020016000205490506000600160008473ffffffffffffffffffffffffffffffffffffffff1673ffffffffffffffffffffffffffffffffffffffff16815260200190815260200160002081905550610275818373ffffffffffffffffffffffffffffffffffffffff166105ea90919063ffffffff16565b8173ffffffffffffffffffffffffffffffffffffffff167f7084f5476618d8e60b11ef0d7d3f06914655adb8793e28ff7f018d4c76d505d5826040516102bb91906108e0565b60405180910390a25050565b6102cf6105e2565b73ffffffffffffffffffffffffffffffffffffffff166102ed61034f565b73ffffffffffffffffffffffffffffffffffffffff1614610343576040517f08c379a000000000000000000000000000000000000000000000000000000000815260040161033a90610958565b60405180910390fd5b61034d60006106de565b565b60008060009054906101000a900473ffffffffffffffffffffffffffffffffffffffff16905090565b6000600160008373ffffffffffffffffffffffffffffffffffffffff1673ffffffffffffffffffffffffffffffffffffffff168152602001908152602001600020549050919050565b6103c96105e2565b73ffffffffffffffffffffffffffffffffffffffff166103e761034f565b73ffffffffffffffffffffffffffffffffffffffff161461043d576040517f08c379a000000000000000000000000000000000000000000000000000000000815260040161043490610958565b60405180910390fd5b600073ffffffffffffffffffffffffffffffffffffffff168173ffffffffffffffffffffffffffffffffffffffff1614156104ad576040517f08c379a00000000000000000000000000000000000000000000000000000000081526004016104a4906109ea565b60405180910390fd5b6104b6816106de565b50565b6104c16105e2565b73ffffffffffffffffffffffffffffffffffffffff166104df61034f565b73ffffffffffffffffffffffffffffffffffffffff1614610535576040517f08c379a000000000000000000000000000000000000000000000000000000000815260040161052c90610958565b60405180910390fd5b600034905080600160008473ffffffffffffffffffffffffffffffffffffffff1673ffffffffffffffffffffffffffffffffffffffff16815260200190815260200160002060008282546105899190610a39565b925050819055508173ffffffffffffffffffffffffffffffffffffffff167f2da466a7b24304f47e87fa2e1e5a81b9831ce54fec19055ce277ca2f39ba42c4826040516105d691906108e0565b60405180910390a25050565b600033905090565b8047101561062d576040517f08c379a000000000000000000000000000000000000000000000000000000000815260040161062490610adb565b60405180910390fd5b60008273ffffffffffffffffffffffffffffffffffffffff168260405161065390610b2c565b60006040518083038185875af1925050503d8060008114610690576040519150601f19603f3d011682016040523d82523d6000602084013e610695565b606091505b50509050806106d9576040517f08c379a00000000000000000000000000000000000000000000000000000000081526004016106d090610bb3565b60405180910390fd5b505050565b60008060009054906101000a900473ffffffffffffffffffffffffffffffffffffffff169050816000806101000a81548173ffffffffffffffffffffffffffffffffffffffff021916908373ffffffffffffffffffffffffffffffffffffffff1602179055508173ffffffffffffffffffffffffffffffffffffffff168173ffffffffffffffffffffffffffffffffffffffff167f8be0079c531659141344cd1fd0a4f28419497f9722a3daafe3b4186f6b6457e060405160405180910390a35050565b600080fd5b600073ffffffffffffffffffffffffffffffffffffffff82169050919050565b60006107d2826107a7565b9050919050565b6107e2816107c7565b81146107ed57600080fd5b50565b6000813590506107ff816107d9565b92915050565b60006020828403121561081b5761081a6107a2565b5b6000610829848285016107f0565b91505092915050565b600061083d826107a7565b9050919050565b61084d81610832565b82525050565b60006020820190506108686000830184610844565b92915050565b61087781610832565b811461088257600080fd5b50565b6000813590506108948161086e565b92915050565b6000602082840312156108b0576108af6107a2565b5b60006108be84828501610885565b91505092915050565b6000819050919050565b6108da816108c7565b82525050565b60006020820190506108f560008301846108d1565b92915050565b600082825260208201905092915050565b7f4f776e61626c653a2063616c6c6572206973206e6f7420746865206f776e6572600082015250565b60006109426020836108fb565b915061094d8261090c565b602082019050919050565b6000602082019050818103600083015261097181610935565b9050919050565b7f4f776e61626c653a206e6577206f776e657220697320746865207a65726f206160008201527f6464726573730000000000000000000000000000000000000000000000000000602082015250565b60006109d46026836108fb565b91506109df82610978565b604082019050919050565b60006020820190508181036000830152610a03816109c7565b9050919050565b7f4e487b7100000000000000000000000000000000000000000000000000000000600052601160045260246000fd5b6000610a44826108c7565b9150610a4f836108c7565b9250827fffffffffffffffffffffffffffffffffffffffffffffffffffffffffffffffff03821115610a8457610a83610a0a565b5b828201905092915050565b7f416464726573733a20696e73756666696369656e742062616c616e6365000000600082015250565b6000610ac5601d836108fb565b9150610ad082610a8f565b602082019050919050565b60006020820190508181036000830152610af481610ab8565b9050919050565b600081905092915050565b50565b6000610b16600083610afb565b9150610b2182610b06565b600082019050919050565b6000610b3782610b09565b9150819050919050565b7f416464726573733a20756e61626c6520746f2073656e642076616c75652c207260008201527f6563697069656e74206d61792068617665207265766572746564000000000000602082015250565b6000610b9d603a836108fb565b9150610ba882610b41565b604082019050919050565b60006020820190508181036000830152610bcc81610b90565b905091905056fea264697066735822122083990c35e2428fe39e932eefd6e569a754b68a0b20a9b2b2a3ac73f447c35f1564736f6c634300080a0033",
  "devdoc": {
    "kind": "dev",
    "methods": {
      "owner()": {
        "details": "Returns the address of the current owner."
      },
      "payments(address)": {
        "details": "Returns the payments owed to an address.",
        "params": {
          "dest": "The creditor's address."
        }
      },
      "renounceOwnership()": {
        "details": "Leaves the contract without owner. It will not be possible to call `onlyOwner` functions anymore. Can only be called by the current owner. NOTE: Renouncing ownership will leave the contract without an owner, thereby removing any functionality that is only available to the owner."
      },
      "transferOwnership(address)": {
        "details": "Transfers ownership of the contract to a new account (`newOwner`). Can only be called by the current owner."
      },
      "withdrawPayments(address)": {
        "details": "Overridden in order to make it an onlyOwner function"
      }
    },
    "version": 1
  },
  "userdoc": {
    "kind": "user",
    "methods": {},
    "version": 1
  },
  "storageLayout": {
    "storage": [
      {
        "astId": 812,
        "contract": "contracts/SolmateNft.sol:SolmateNft",
        "label": "name",
        "offset": 0,
        "slot": "0",
        "type": "t_string_storage"
      },
      {
        "astId": 814,
        "contract": "contracts/SolmateNft.sol:SolmateNft",
        "label": "symbol",
        "offset": 0,
        "slot": "1",
        "type": "t_string_storage"
      },
      {
        "astId": 825,
        "contract": "contracts/SolmateNft.sol:SolmateNft",
        "label": "_ownerOf",
        "offset": 0,
        "slot": "2",
        "type": "t_mapping(t_uint256,t_address)"
      },
      {
        "astId": 829,
        "contract": "contracts/SolmateNft.sol:SolmateNft",
        "label": "_balanceOf",
        "offset": 0,
        "slot": "3",
        "type": "t_mapping(t_address,t_uint256)"
      },
      {
        "astId": 878,
        "contract": "contracts/SolmateNft.sol:SolmateNft",
        "label": "getApproved",
        "offset": 0,
        "slot": "4",
        "type": "t_mapping(t_uint256,t_address)"
      },
      {
        "astId": 884,
        "contract": "contracts/SolmateNft.sol:SolmateNft",
        "label": "isApprovedForAll",
        "offset": 0,
        "slot": "5",
        "type": "t_mapping(t_address,t_mapping(t_address,t_bool))"
      },
      {
        "astId": 7,
        "contract": "contracts/SolmateNft.sol:SolmateNft",
        "label": "_owner",
        "offset": 0,
        "slot": "6",
        "type": "t_address"
      },
      {
        "astId": 1365,
        "contract": "contracts/SolmateNft.sol:SolmateNft",
        "label": "baseURI",
        "offset": 0,
        "slot": "7",
        "type": "t_string_storage"
      },
      {
        "astId": 1367,
        "contract": "contracts/SolmateNft.sol:SolmateNft",
        "label": "currentTokenId",
        "offset": 0,
        "slot": "8",
        "type": "t_uint256"
      }
    ],
    "types": {
      "t_address": {
        "encoding": "inplace",
        "label": "address",
        "numberOfBytes": "20"
      },
      "t_bool": {
        "encoding": "inplace",
        "label": "bool",
        "numberOfBytes": "1"
      },
      "t_mapping(t_address,t_bool)": {
        "encoding": "mapping",
        "key": "t_address",
        "label": "mapping(address => bool)",
        "numberOfBytes": "32",
        "value": "t_bool"
      },
      "t_mapping(t_address,t_mapping(t_address,t_bool))": {
        "encoding": "mapping",
        "key": "t_address",
        "label": "mapping(address => mapping(address => bool))",
        "numberOfBytes": "32",
        "value": "t_mapping(t_address,t_bool)"
      },
      "t_mapping(t_address,t_uint256)": {
        "encoding": "mapping",
        "key": "t_address",
        "label": "mapping(address => uint256)",
        "numberOfBytes": "32",
        "value": "t_uint256"
      },
      "t_mapping(t_uint256,t_address)": {
        "encoding": "mapping",
        "key": "t_uint256",
        "label": "mapping(uint256 => address)",
        "numberOfBytes": "32",
        "value": "t_address"
      },
      "t_string_storage": {
        "encoding": "bytes",
        "label": "string",
        "numberOfBytes": "32"
      },
      "t_uint256": {
        "encoding": "inplace",
        "label": "uint256",
        "numberOfBytes": "32"
      }
    }
  }
}